{
  "contractName": "Message",
  "abi": [
    {
      "inputs": [
        {
          "internalType": "string",
          "name": "_message",
          "type": "string"
        }
      ],
      "name": "setMessage",
      "outputs": [],
      "stateMutability": "nonpayable",
      "type": "function"
    },
    {
      "inputs": [],
      "name": "setMessageCool",
      "outputs": [
        {
          "internalType": "uint256",
          "name": "",
          "type": "uint256"
        }
      ],
      "stateMutability": "nonpayable",
      "type": "function"
    },
    {
      "inputs": [],
      "name": "getMessage",
      "outputs": [
        {
          "internalType": "string",
          "name": "",
          "type": "string"
        }
      ],
      "stateMutability": "view",
      "type": "function",
      "constant": true
    }
  ],
  "bytecode": "0x60806040526040518060400160405280600b81526020017f48656c6c6f20576f726c640000000000000000000000000000000000000000008152506000908051906020019061004f929190610062565b5034801561005c57600080fd5b50610166565b82805461006e90610105565b90600052602060002090601f01602090048101928261009057600085556100d7565b82601f106100a957805160ff19168380011785556100d7565b828001600101855582156100d7579182015b828111156100d65782518255916020019190600101906100bb565b5b5090506100e491906100e8565b5090565b5b808211156101015760008160009055506001016100e9565b5090565b6000600282049050600182168061011d57607f821691505b6020821081141561013157610130610137565b5b50919050565b7f4e487b7100000000000000000000000000000000000000000000000000000000600052602260045260246000fd5b610510806101756000396000f3fe608060405234801561001057600080fd5b50600436106100415760003560e01c806310e9beee14610046578063368b877214610064578063ce6d41de14610080575b600080fd5b61004e61009e565b60405161005b9190610355565b60405180910390f35b61007e600480360381019061007991906102aa565b6100f3565b005b61008861010d565b6040516100959190610333565b60405180910390f35b60006040518060400160405280600281526020017f6869000000000000000000000000000000000000000000000000000000000000815250600090805190602001906100eb92919061019f565b506001905090565b806000908051906020019061010992919061019f565b5050565b60606000805461011c90610439565b80601f016020809104026020016040519081016040528092919081815260200182805461014890610439565b80156101955780601f1061016a57610100808354040283529160200191610195565b820191906000526020600020905b81548152906001019060200180831161017857829003601f168201915b5050505050905090565b8280546101ab90610439565b90600052602060002090601f0160209004810192826101cd5760008555610214565b82601f106101e657805160ff1916838001178555610214565b82800160010185558215610214579182015b828111156102135782518255916020019190600101906101f8565b5b5090506102219190610225565b5090565b5b8082111561023e576000816000905550600101610226565b5090565b6000610255610250846103a1565b610370565b90508281526020810184848401111561026d57600080fd5b6102788482856103f7565b509392505050565b600082601f83011261029157600080fd5b81356102a1848260208601610242565b91505092915050565b6000602082840312156102bc57600080fd5b600082013567ffffffffffffffff8111156102d657600080fd5b6102e284828501610280565b91505092915050565b60006102f6826103d1565b61030081856103dc565b9350610310818560208601610406565b610319816104c9565b840191505092915050565b61032d816103ed565b82525050565b6000602082019050818103600083015261034d81846102eb565b905092915050565b600060208201905061036a6000830184610324565b92915050565b6000604051905081810181811067ffffffffffffffff821117156103975761039661049a565b5b8060405250919050565b600067ffffffffffffffff8211156103bc576103bb61049a565b5b601f19601f8301169050602081019050919050565b600081519050919050565b600082825260208201905092915050565b6000819050919050565b82818337600083830152505050565b60005b83811015610424578082015181840152602081019050610409565b83811115610433576000848401525b50505050565b6000600282049050600182168061045157607f821691505b602082108114156104655761046461046b565b5b50919050565b7f4e487b7100000000000000000000000000000000000000000000000000000000600052602260045260246000fd5b7f4e487b7100000000000000000000000000000000000000000000000000000000600052604160045260246000fd5b6000601f19601f830116905091905056fea26469706673582212207fff02a8b8fdcd9f8e467f72a18b9f581ce6e7c27443412870caf0b29de8413464736f6c63430008000033",
  "immutableReferences": {},
  "source": "pragma solidity ^0.8.0;\n\ncontract Message {\n    string private message = \"Hello World\";\n    function setMessage(string memory _message) public {\n        message = _message;\n    }\n    function setMessageCool() public returns (uint) {\n        message = \"hi\";\n        return 1;\n    }\n    function getMessage() public view returns (string memory) {\n        return message;\n    }\n}",
  "sourcePath": "/home/david/Documents/blockchaintemplate/truffle/contracts/Message.sol",
  "compiler": {
    "name": "solc",
    "version": "0.8.0+commit.c7dfd78e.Emscripten.clang"
  },
  "schemaVersion": "3.4.16",
  "updatedAt": "2025-02-14T20:33:16.437Z",
  "networkType": "ethereum",
  "devdoc": {
    "kind": "dev",
    "methods": {},
    "version": 1
  },
  "userdoc": {
    "kind": "user",
    "methods": {},
    "version": 1
  }
}